{
	"data": {
		"bytecode": {
			"linkReferences": {},
			"object": "608060405234801561001057600080fd5b50604051610c7e380380610c7e8339818101604052608081101561003357600080fd5b50805160208201516040830151606090930151600480546001600160a01b03191633179055600092909255600155600291909155600355610c05806100796000396000f3fe6080604052600436106100dd5760003560e01c8063c2265f961161007f578063e18d38ce11610059578063e18d38ce146102a2578063ed591eda146102d5578063f2fde38b146102dd578063fcbfc36c14610310576100dd565b8063c2265f96146101d2578063c94bf0db146101e7578063d8177369146101fc576100dd565b806381f08783116100bb57806381f0878314610138578063831c129c1461014d5780638da5cb5b14610177578063b2dacd1c146101a8576100dd565b806332c85d9c146100df578063605361721461010657806361c1f7971461010e575b005b3480156100eb57600080fd5b506100f4610336565b60408051918252519081900360200190f35b6100dd61033c565b34801561011a57600080fd5b506100dd6004803603602081101561013157600080fd5b50356103da565b34801561014457600080fd5b506100f461042c565b34801561015957600080fd5b506100dd6004803603602081101561017057600080fd5b5035610432565b34801561018357600080fd5b5061018c61044a565b604080516001600160a01b039092168252519081900360200190f35b3480156101b457600080fd5b506100dd600480360360208110156101cb57600080fd5b5035610459565b3480156101de57600080fd5b506100f4610471565b3480156101f357600080fd5b506100f4610477565b6100dd6004803603602081101561021257600080fd5b81019060208101813564010000000081111561022d57600080fd5b82018360208201111561023f57600080fd5b8035906020019184600183028401116401000000008311171561026157600080fd5b91908080601f01602080910402602001604051908101604052809392919081815260200183838082843760009201919091525092955061047d945050505050565b3480156102ae57600080fd5b506100f4600480360360208110156102c557600080fd5b50356001600160a01b0316610572565b6100dd610591565b3480156102e957600080fd5b506100dd6004803603602081101561030057600080fd5b50356001600160a01b03166105f9565b6100dd6004803603602081101561032657600080fd5b50356001600160a01b031661062c565b60035481565b600354341015610389576040805162461bcd60e51b8152602060048201526013602482015272416d6f756e742073656e7420746f6f206c6f7760681b604482015290519081900360640190fd5b6004546003546040516001600160a01b039092169181156108fc0291906000818181858888f193505050501580156103c5573d6000803e3d6000fd5b50600480546001600160a01b03191633179055565b6004546001600160a01b0316331415610429576004546040516001600160a01b039091169082156108fc029083906000818181858888f19350505050158015610427573d6000803e3d6000fd5b505b50565b60025481565b6004546001600160a01b031633141561042957600255565b6004546001600160a01b031681565b6004546001600160a01b031633141561042957600055565b60005481565b60015481565b6001543410156104ca576040805162461bcd60e51b8152602060048201526013602482015272416d6f756e742073656e7420746f6f206c6f7760681b604482015290519081900360640190fd5b6104d38161097c565b151560011461051f576040805162461bcd60e51b8152602060048201526013602482015272496e76616c696420706c61796572206e616d6560681b604482015290519081900360640190fd5b6020818101513360008181526006845260409081902083905580518381529051929391927f10b5fb3b2ade61e8e2c86b8842afa467103acdea6a7985ad0a36d4514c31bc2f929181900390910190a25050565b6001600160a01b0381166000908152600660205260409020545b919050565b3332146105dd576040805162461bcd60e51b815260206004820152601560248201527414d95b99195c881b9bdd08185d5d1a1bdc9a5e9959605a1b604482015290519081900360640190fd5b336000908152600560205260409020805460ff19166001179055565b6004546001600160a01b031633141561042957600480546001600160a01b0383166001600160a01b031990911617905550565b333214610678576040805162461bcd60e51b815260206004820152601560248201527414d95b99195c881b9bdd08185d5d1a1bdc9a5e9959605a1b604482015290519081900360640190fd5b6000543410156106c5576040805162461bcd60e51b8152602060048201526013602482015272416d6f756e742073656e7420746f6f206c6f7760681b604482015290519081900360640190fd5b6000805434816106d157fe5b0490506000805b82156108e65760006106eb600a83610b60565b905060006106fd600a84600101610b60565b9050600061070f600a85600201610b60565b9050818314801561071f57508082145b156107c3576000805460320290508086019550661a9858dadc1bdd60ca1b336001600160a01b03167fdcb6244c9a0bb3db91b17b8c607d475824ccdc6bae2c71fd4e18d84e09e594b86040518060600160405280888152602001878152602001868152506040518082600360200280838360005b838110156107ab578181015183820152602001610793565b5050505090500191505060405180910390a3506108d4565b818314806107d057508083145b806107da57508082145b1561084b5760005460408051606080820183528682526020808301879052828401869052925187815260029094029889019893623bb4b760e91b9333937fdcb6244c9a0bb3db91b17b8c607d475824ccdc6bae2c71fd4e18d84e09e594b89390929182918491819084908490610793565b636c6f736560e01b336001600160a01b03167fdcb6244c9a0bb3db91b17b8c607d475824ccdc6bae2c71fd4e18d84e09e594b86040518060600160405280878152602001868152602001858152506040518082600360200280838360005b838110156108c15781810151838201526020016108a9565b5050505090500191505060405180910390a35b505060001990930192506003016106d8565b811561091b57604051339083156108fc029084906000818181858888f19350505050158015610919573d6000803e3d6000fd5b505b6001600160a01b03841660009081526005602052604090205460ff1615610976576040516001600160a01b03851690600a340480156108fc02916000818181858888f19350505050158015610974573d6000803e3d6000fd5b505b50505050565b8051600090829060018110806109925750602081115b156109a25760009250505061058c565b816000815181106109af57fe5b6020910101516001600160f81b031916600160fd1b14806109f157508160018203815181106109da57fe5b6020910101516001600160f81b031916600160fd1b145b15610a015760009250505061058c565b81600081518110610a0e57fe5b6020910101516001600160f81b031916600360fc1b1415610a345760009250505061058c565b60005b8251811015610b55576000838281518110610a4e57fe5b01602001516001600160f81b0319169050600360fc1b8110801590610a815750603960f81b6001600160f81b0319821611155b158015610ab75750606160f81b6001600160f81b0319821610801590610ab55750603d60f91b6001600160f81b0319821611155b155b8015610aec5750604160f81b6001600160f81b0319821610801590610aea5750602d60f91b6001600160f81b0319821611155b155b8015610b065750600160fd1b6001600160f81b0319821614155b8015610b205750605f60f81b6001600160f81b0319821614155b8015610b3a5750601760f91b6001600160f81b0319821614155b15610b4c57600094505050505061058c565b50600101610a37565b506001949350505050565b60408051426020808301919091524160601b828401524460548301526000194301406074830181905230316094840181905260b48085018790528551808603909101815260d490940190945282519290910191909120600092908390869081610bc557fe5b06969550505050505056fea265627a7a72305820ac83e88e05213e6dbb591883b76d11db56c6d93b4c6e2fc9c1809984f7afd1b264736f6c634300050a0032",
			"opcodes": "PUSH1 0x80 PUSH1 0x40 MSTORE CALLVALUE DUP1 ISZERO PUSH2 0x10 JUMPI PUSH1 0x0 DUP1 REVERT JUMPDEST POP PUSH1 0x40 MLOAD PUSH2 0xC7E CODESIZE SUB DUP1 PUSH2 0xC7E DUP4 CODECOPY DUP2 DUP2 ADD PUSH1 0x40 MSTORE PUSH1 0x80 DUP2 LT ISZERO PUSH2 0x33 JUMPI PUSH1 0x0 DUP1 REVERT JUMPDEST POP DUP1 MLOAD PUSH1 0x20 DUP3 ADD MLOAD PUSH1 0x40 DUP4 ADD MLOAD PUSH1 0x60 SWAP1 SWAP4 ADD MLOAD PUSH1 0x4 DUP1 SLOAD PUSH1 0x1 PUSH1 0x1 PUSH1 0xA0 SHL SUB NOT AND CALLER OR SWAP1 SSTORE PUSH1 0x0 SWAP3 SWAP1 SWAP3 SSTORE PUSH1 0x1 SSTORE PUSH1 0x2 SWAP2 SWAP1 SWAP2 SSTORE PUSH1 0x3 SSTORE PUSH2 0xC05 DUP1 PUSH2 0x79 PUSH1 0x0 CODECOPY PUSH1 0x0 RETURN INVALID PUSH1 0x80 PUSH1 0x40 MSTORE PUSH1 0x4 CALLDATASIZE LT PUSH2 0xDD JUMPI PUSH1 0x0 CALLDATALOAD PUSH1 0xE0 SHR DUP1 PUSH4 0xC2265F96 GT PUSH2 0x7F JUMPI DUP1 PUSH4 0xE18D38CE GT PUSH2 0x59 JUMPI DUP1 PUSH4 0xE18D38CE EQ PUSH2 0x2A2 JUMPI DUP1 PUSH4 0xED591EDA EQ PUSH2 0x2D5 JUMPI DUP1 PUSH4 0xF2FDE38B EQ PUSH2 0x2DD JUMPI DUP1 PUSH4 0xFCBFC36C EQ PUSH2 0x310 JUMPI PUSH2 0xDD JUMP JUMPDEST DUP1 PUSH4 0xC2265F96 EQ PUSH2 0x1D2 JUMPI DUP1 PUSH4 0xC94BF0DB EQ PUSH2 0x1E7 JUMPI DUP1 PUSH4 0xD8177369 EQ PUSH2 0x1FC JUMPI PUSH2 0xDD JUMP JUMPDEST DUP1 PUSH4 0x81F08783 GT PUSH2 0xBB JUMPI DUP1 PUSH4 0x81F08783 EQ PUSH2 0x138 JUMPI DUP1 PUSH4 0x831C129C EQ PUSH2 0x14D JUMPI DUP1 PUSH4 0x8DA5CB5B EQ PUSH2 0x177 JUMPI DUP1 PUSH4 0xB2DACD1C EQ PUSH2 0x1A8 JUMPI PUSH2 0xDD JUMP JUMPDEST DUP1 PUSH4 0x32C85D9C EQ PUSH2 0xDF JUMPI DUP1 PUSH4 0x60536172 EQ PUSH2 0x106 JUMPI DUP1 PUSH4 0x61C1F797 EQ PUSH2 0x10E JUMPI JUMPDEST STOP JUMPDEST CALLVALUE DUP1 ISZERO PUSH2 0xEB JUMPI PUSH1 0x0 DUP1 REVERT JUMPDEST POP PUSH2 0xF4 PUSH2 0x336 JUMP JUMPDEST PUSH1 0x40 DUP1 MLOAD SWAP2 DUP3 MSTORE MLOAD SWAP1 DUP2 SWAP1 SUB PUSH1 0x20 ADD SWAP1 RETURN JUMPDEST PUSH2 0xDD PUSH2 0x33C JUMP JUMPDEST CALLVALUE DUP1 ISZERO PUSH2 0x11A JUMPI PUSH1 0x0 DUP1 REVERT JUMPDEST POP PUSH2 0xDD PUSH1 0x4 DUP1 CALLDATASIZE SUB PUSH1 0x20 DUP2 LT ISZERO PUSH2 0x131 JUMPI PUSH1 0x0 DUP1 REVERT JUMPDEST POP CALLDATALOAD PUSH2 0x3DA JUMP JUMPDEST CALLVALUE DUP1 ISZERO PUSH2 0x144 JUMPI PUSH1 0x0 DUP1 REVERT JUMPDEST POP PUSH2 0xF4 PUSH2 0x42C JUMP JUMPDEST CALLVALUE DUP1 ISZERO PUSH2 0x159 JUMPI PUSH1 0x0 DUP1 REVERT JUMPDEST POP PUSH2 0xDD PUSH1 0x4 DUP1 CALLDATASIZE SUB PUSH1 0x20 DUP2 LT ISZERO PUSH2 0x170 JUMPI PUSH1 0x0 DUP1 REVERT JUMPDEST POP CALLDATALOAD PUSH2 0x432 JUMP JUMPDEST CALLVALUE DUP1 ISZERO PUSH2 0x183 JUMPI PUSH1 0x0 DUP1 REVERT JUMPDEST POP PUSH2 0x18C PUSH2 0x44A JUMP JUMPDEST PUSH1 0x40 DUP1 MLOAD PUSH1 0x1 PUSH1 0x1 PUSH1 0xA0 SHL SUB SWAP1 SWAP3 AND DUP3 MSTORE MLOAD SWAP1 DUP2 SWAP1 SUB PUSH1 0x20 ADD SWAP1 RETURN JUMPDEST CALLVALUE DUP1 ISZERO PUSH2 0x1B4 JUMPI PUSH1 0x0 DUP1 REVERT JUMPDEST POP PUSH2 0xDD PUSH1 0x4 DUP1 CALLDATASIZE SUB PUSH1 0x20 DUP2 LT ISZERO PUSH2 0x1CB JUMPI PUSH1 0x0 DUP1 REVERT JUMPDEST POP CALLDATALOAD PUSH2 0x459 JUMP JUMPDEST CALLVALUE DUP1 ISZERO PUSH2 0x1DE JUMPI PUSH1 0x0 DUP1 REVERT JUMPDEST POP PUSH2 0xF4 PUSH2 0x471 JUMP JUMPDEST CALLVALUE DUP1 ISZERO PUSH2 0x1F3 JUMPI PUSH1 0x0 DUP1 REVERT JUMPDEST POP PUSH2 0xF4 PUSH2 0x477 JUMP JUMPDEST PUSH2 0xDD PUSH1 0x4 DUP1 CALLDATASIZE SUB PUSH1 0x20 DUP2 LT ISZERO PUSH2 0x212 JUMPI PUSH1 0x0 DUP1 REVERT JUMPDEST DUP2 ADD SWAP1 PUSH1 0x20 DUP2 ADD DUP2 CALLDATALOAD PUSH5 0x100000000 DUP2 GT ISZERO PUSH2 0x22D JUMPI PUSH1 0x0 DUP1 REVERT JUMPDEST DUP3 ADD DUP4 PUSH1 0x20 DUP3 ADD GT ISZERO PUSH2 0x23F JUMPI PUSH1 0x0 DUP1 REVERT JUMPDEST DUP1 CALLDATALOAD SWAP1 PUSH1 0x20 ADD SWAP2 DUP5 PUSH1 0x1 DUP4 MUL DUP5 ADD GT PUSH5 0x100000000 DUP4 GT OR ISZERO PUSH2 0x261 JUMPI PUSH1 0x0 DUP1 REVERT JUMPDEST SWAP2 SWAP1 DUP1 DUP1 PUSH1 0x1F ADD PUSH1 0x20 DUP1 SWAP2 DIV MUL PUSH1 0x20 ADD PUSH1 0x40 MLOAD SWAP1 DUP2 ADD PUSH1 0x40 MSTORE DUP1 SWAP4 SWAP3 SWAP2 SWAP1 DUP2 DUP2 MSTORE PUSH1 0x20 ADD DUP4 DUP4 DUP1 DUP3 DUP5 CALLDATACOPY PUSH1 0x0 SWAP3 ADD SWAP2 SWAP1 SWAP2 MSTORE POP SWAP3 SWAP6 POP PUSH2 0x47D SWAP5 POP POP POP POP POP JUMP JUMPDEST CALLVALUE DUP1 ISZERO PUSH2 0x2AE JUMPI PUSH1 0x0 DUP1 REVERT JUMPDEST POP PUSH2 0xF4 PUSH1 0x4 DUP1 CALLDATASIZE SUB PUSH1 0x20 DUP2 LT ISZERO PUSH2 0x2C5 JUMPI PUSH1 0x0 DUP1 REVERT JUMPDEST POP CALLDATALOAD PUSH1 0x1 PUSH1 0x1 PUSH1 0xA0 SHL SUB AND PUSH2 0x572 JUMP JUMPDEST PUSH2 0xDD PUSH2 0x591 JUMP JUMPDEST CALLVALUE DUP1 ISZERO PUSH2 0x2E9 JUMPI PUSH1 0x0 DUP1 REVERT JUMPDEST POP PUSH2 0xDD PUSH1 0x4 DUP1 CALLDATASIZE SUB PUSH1 0x20 DUP2 LT ISZERO PUSH2 0x300 JUMPI PUSH1 0x0 DUP1 REVERT JUMPDEST POP CALLDATALOAD PUSH1 0x1 PUSH1 0x1 PUSH1 0xA0 SHL SUB AND PUSH2 0x5F9 JUMP JUMPDEST PUSH2 0xDD PUSH1 0x4 DUP1 CALLDATASIZE SUB PUSH1 0x20 DUP2 LT ISZERO PUSH2 0x326 JUMPI PUSH1 0x0 DUP1 REVERT JUMPDEST POP CALLDATALOAD PUSH1 0x1 PUSH1 0x1 PUSH1 0xA0 SHL SUB AND PUSH2 0x62C JUMP JUMPDEST PUSH1 0x3 SLOAD DUP2 JUMP JUMPDEST PUSH1 0x3 SLOAD CALLVALUE LT ISZERO PUSH2 0x389 JUMPI PUSH1 0x40 DUP1 MLOAD PUSH3 0x461BCD PUSH1 0xE5 SHL DUP2 MSTORE PUSH1 0x20 PUSH1 0x4 DUP3 ADD MSTORE PUSH1 0x13 PUSH1 0x24 DUP3 ADD MSTORE PUSH19 0x416D6F756E742073656E7420746F6F206C6F77 PUSH1 0x68 SHL PUSH1 0x44 DUP3 ADD MSTORE SWAP1 MLOAD SWAP1 DUP2 SWAP1 SUB PUSH1 0x64 ADD SWAP1 REVERT JUMPDEST PUSH1 0x4 SLOAD PUSH1 0x3 SLOAD PUSH1 0x40 MLOAD PUSH1 0x1 PUSH1 0x1 PUSH1 0xA0 SHL SUB SWAP1 SWAP3 AND SWAP2 DUP2 ISZERO PUSH2 0x8FC MUL SWAP2 SWAP1 PUSH1 0x0 DUP2 DUP2 DUP2 DUP6 DUP9 DUP9 CALL SWAP4 POP POP POP POP ISZERO DUP1 ISZERO PUSH2 0x3C5 JUMPI RETURNDATASIZE PUSH1 0x0 DUP1 RETURNDATACOPY RETURNDATASIZE PUSH1 0x0 REVERT JUMPDEST POP PUSH1 0x4 DUP1 SLOAD PUSH1 0x1 PUSH1 0x1 PUSH1 0xA0 SHL SUB NOT AND CALLER OR SWAP1 SSTORE JUMP JUMPDEST PUSH1 0x4 SLOAD PUSH1 0x1 PUSH1 0x1 PUSH1 0xA0 SHL SUB AND CALLER EQ ISZERO PUSH2 0x429 JUMPI PUSH1 0x4 SLOAD PUSH1 0x40 MLOAD PUSH1 0x1 PUSH1 0x1 PUSH1 0xA0 SHL SUB SWAP1 SWAP2 AND SWAP1 DUP3 ISZERO PUSH2 0x8FC MUL SWAP1 DUP4 SWAP1 PUSH1 0x0 DUP2 DUP2 DUP2 DUP6 DUP9 DUP9 CALL SWAP4 POP POP POP POP ISZERO DUP1 ISZERO PUSH2 0x427 JUMPI RETURNDATASIZE PUSH1 0x0 DUP1 RETURNDATACOPY RETURNDATASIZE PUSH1 0x0 REVERT JUMPDEST POP JUMPDEST POP JUMP JUMPDEST PUSH1 0x2 SLOAD DUP2 JUMP JUMPDEST PUSH1 0x4 SLOAD PUSH1 0x1 PUSH1 0x1 PUSH1 0xA0 SHL SUB AND CALLER EQ ISZERO PUSH2 0x429 JUMPI PUSH1 0x2 SSTORE JUMP JUMPDEST PUSH1 0x4 SLOAD PUSH1 0x1 PUSH1 0x1 PUSH1 0xA0 SHL SUB AND DUP2 JUMP JUMPDEST PUSH1 0x4 SLOAD PUSH1 0x1 PUSH1 0x1 PUSH1 0xA0 SHL SUB AND CALLER EQ ISZERO PUSH2 0x429 JUMPI PUSH1 0x0 SSTORE JUMP JUMPDEST PUSH1 0x0 SLOAD DUP2 JUMP JUMPDEST PUSH1 0x1 SLOAD DUP2 JUMP JUMPDEST PUSH1 0x1 SLOAD CALLVALUE LT ISZERO PUSH2 0x4CA JUMPI PUSH1 0x40 DUP1 MLOAD PUSH3 0x461BCD PUSH1 0xE5 SHL DUP2 MSTORE PUSH1 0x20 PUSH1 0x4 DUP3 ADD MSTORE PUSH1 0x13 PUSH1 0x24 DUP3 ADD MSTORE PUSH19 0x416D6F756E742073656E7420746F6F206C6F77 PUSH1 0x68 SHL PUSH1 0x44 DUP3 ADD MSTORE SWAP1 MLOAD SWAP1 DUP2 SWAP1 SUB PUSH1 0x64 ADD SWAP1 REVERT JUMPDEST PUSH2 0x4D3 DUP2 PUSH2 0x97C JUMP JUMPDEST ISZERO ISZERO PUSH1 0x1 EQ PUSH2 0x51F JUMPI PUSH1 0x40 DUP1 MLOAD PUSH3 0x461BCD PUSH1 0xE5 SHL DUP2 MSTORE PUSH1 0x20 PUSH1 0x4 DUP3 ADD MSTORE PUSH1 0x13 PUSH1 0x24 DUP3 ADD MSTORE PUSH19 0x496E76616C696420706C61796572206E616D65 PUSH1 0x68 SHL PUSH1 0x44 DUP3 ADD MSTORE SWAP1 MLOAD SWAP1 DUP2 SWAP1 SUB PUSH1 0x64 ADD SWAP1 REVERT JUMPDEST PUSH1 0x20 DUP2 DUP2 ADD MLOAD CALLER PUSH1 0x0 DUP2 DUP2 MSTORE PUSH1 0x6 DUP5 MSTORE PUSH1 0x40 SWAP1 DUP2 SWAP1 KECCAK256 DUP4 SWAP1 SSTORE DUP1 MLOAD DUP4 DUP2 MSTORE SWAP1 MLOAD SWAP3 SWAP4 SWAP2 SWAP3 PUSH32 0x10B5FB3B2ADE61E8E2C86B8842AFA467103ACDEA6A7985AD0A36D4514C31BC2F SWAP3 SWAP2 DUP2 SWAP1 SUB SWAP1 SWAP2 ADD SWAP1 LOG2 POP POP JUMP JUMPDEST PUSH1 0x1 PUSH1 0x1 PUSH1 0xA0 SHL SUB DUP2 AND PUSH1 0x0 SWAP1 DUP2 MSTORE PUSH1 0x6 PUSH1 0x20 MSTORE PUSH1 0x40 SWAP1 KECCAK256 SLOAD JUMPDEST SWAP2 SWAP1 POP JUMP JUMPDEST CALLER ORIGIN EQ PUSH2 0x5DD JUMPI PUSH1 0x40 DUP1 MLOAD PUSH3 0x461BCD PUSH1 0xE5 SHL DUP2 MSTORE PUSH1 0x20 PUSH1 0x4 DUP3 ADD MSTORE PUSH1 0x15 PUSH1 0x24 DUP3 ADD MSTORE PUSH21 0x14D95B99195C881B9BDD08185D5D1A1BDC9A5E9959 PUSH1 0x5A SHL PUSH1 0x44 DUP3 ADD MSTORE SWAP1 MLOAD SWAP1 DUP2 SWAP1 SUB PUSH1 0x64 ADD SWAP1 REVERT JUMPDEST CALLER PUSH1 0x0 SWAP1 DUP2 MSTORE PUSH1 0x5 PUSH1 0x20 MSTORE PUSH1 0x40 SWAP1 KECCAK256 DUP1 SLOAD PUSH1 0xFF NOT AND PUSH1 0x1 OR SWAP1 SSTORE JUMP JUMPDEST PUSH1 0x4 SLOAD PUSH1 0x1 PUSH1 0x1 PUSH1 0xA0 SHL SUB AND CALLER EQ ISZERO PUSH2 0x429 JUMPI PUSH1 0x4 DUP1 SLOAD PUSH1 0x1 PUSH1 0x1 PUSH1 0xA0 SHL SUB DUP4 AND PUSH1 0x1 PUSH1 0x1 PUSH1 0xA0 SHL SUB NOT SWAP1 SWAP2 AND OR SWAP1 SSTORE POP JUMP JUMPDEST CALLER ORIGIN EQ PUSH2 0x678 JUMPI PUSH1 0x40 DUP1 MLOAD PUSH3 0x461BCD PUSH1 0xE5 SHL DUP2 MSTORE PUSH1 0x20 PUSH1 0x4 DUP3 ADD MSTORE PUSH1 0x15 PUSH1 0x24 DUP3 ADD MSTORE PUSH21 0x14D95B99195C881B9BDD08185D5D1A1BDC9A5E9959 PUSH1 0x5A SHL PUSH1 0x44 DUP3 ADD MSTORE SWAP1 MLOAD SWAP1 DUP2 SWAP1 SUB PUSH1 0x64 ADD SWAP1 REVERT JUMPDEST PUSH1 0x0 SLOAD CALLVALUE LT ISZERO PUSH2 0x6C5 JUMPI PUSH1 0x40 DUP1 MLOAD PUSH3 0x461BCD PUSH1 0xE5 SHL DUP2 MSTORE PUSH1 0x20 PUSH1 0x4 DUP3 ADD MSTORE PUSH1 0x13 PUSH1 0x24 DUP3 ADD MSTORE PUSH19 0x416D6F756E742073656E7420746F6F206C6F77 PUSH1 0x68 SHL PUSH1 0x44 DUP3 ADD MSTORE SWAP1 MLOAD SWAP1 DUP2 SWAP1 SUB PUSH1 0x64 ADD SWAP1 REVERT JUMPDEST PUSH1 0x0 DUP1 SLOAD CALLVALUE DUP2 PUSH2 0x6D1 JUMPI INVALID JUMPDEST DIV SWAP1 POP PUSH1 0x0 DUP1 JUMPDEST DUP3 ISZERO PUSH2 0x8E6 JUMPI PUSH1 0x0 PUSH2 0x6EB PUSH1 0xA DUP4 PUSH2 0xB60 JUMP JUMPDEST SWAP1 POP PUSH1 0x0 PUSH2 0x6FD PUSH1 0xA DUP5 PUSH1 0x1 ADD PUSH2 0xB60 JUMP JUMPDEST SWAP1 POP PUSH1 0x0 PUSH2 0x70F PUSH1 0xA DUP6 PUSH1 0x2 ADD PUSH2 0xB60 JUMP JUMPDEST SWAP1 POP DUP2 DUP4 EQ DUP1 ISZERO PUSH2 0x71F JUMPI POP DUP1 DUP3 EQ JUMPDEST ISZERO PUSH2 0x7C3 JUMPI PUSH1 0x0 DUP1 SLOAD PUSH1 0x32 MUL SWAP1 POP DUP1 DUP7 ADD SWAP6 POP PUSH7 0x1A9858DADC1BDD PUSH1 0xCA SHL CALLER PUSH1 0x1 PUSH1 0x1 PUSH1 0xA0 SHL SUB AND PUSH32 0xDCB6244C9A0BB3DB91B17B8C607D475824CCDC6BAE2C71FD4E18D84E09E594B8 PUSH1 0x40 MLOAD DUP1 PUSH1 0x60 ADD PUSH1 0x40 MSTORE DUP1 DUP9 DUP2 MSTORE PUSH1 0x20 ADD DUP8 DUP2 MSTORE PUSH1 0x20 ADD DUP7 DUP2 MSTORE POP PUSH1 0x40 MLOAD DUP1 DUP3 PUSH1 0x3 PUSH1 0x20 MUL DUP1 DUP4 DUP4 PUSH1 0x0 JUMPDEST DUP4 DUP2 LT ISZERO PUSH2 0x7AB JUMPI DUP2 DUP2 ADD MLOAD DUP4 DUP3 ADD MSTORE PUSH1 0x20 ADD PUSH2 0x793 JUMP JUMPDEST POP POP POP POP SWAP1 POP ADD SWAP2 POP POP PUSH1 0x40 MLOAD DUP1 SWAP2 SUB SWAP1 LOG3 POP PUSH2 0x8D4 JUMP JUMPDEST DUP2 DUP4 EQ DUP1 PUSH2 0x7D0 JUMPI POP DUP1 DUP4 EQ JUMPDEST DUP1 PUSH2 0x7DA JUMPI POP DUP1 DUP3 EQ JUMPDEST ISZERO PUSH2 0x84B JUMPI PUSH1 0x0 SLOAD PUSH1 0x40 DUP1 MLOAD PUSH1 0x60 DUP1 DUP3 ADD DUP4 MSTORE DUP7 DUP3 MSTORE PUSH1 0x20 DUP1 DUP4 ADD DUP8 SWAP1 MSTORE DUP3 DUP5 ADD DUP7 SWAP1 MSTORE SWAP3 MLOAD DUP8 DUP2 MSTORE PUSH1 0x2 SWAP1 SWAP5 MUL SWAP9 DUP10 ADD SWAP9 SWAP4 PUSH3 0x3BB4B7 PUSH1 0xE9 SHL SWAP4 CALLER SWAP4 PUSH32 0xDCB6244C9A0BB3DB91B17B8C607D475824CCDC6BAE2C71FD4E18D84E09E594B8 SWAP4 SWAP1 SWAP3 SWAP2 DUP3 SWAP2 DUP5 SWAP2 DUP2 SWAP1 DUP5 SWAP1 DUP5 SWAP1 PUSH2 0x793 JUMP JUMPDEST PUSH4 0x6C6F7365 PUSH1 0xE0 SHL CALLER PUSH1 0x1 PUSH1 0x1 PUSH1 0xA0 SHL SUB AND PUSH32 0xDCB6244C9A0BB3DB91B17B8C607D475824CCDC6BAE2C71FD4E18D84E09E594B8 PUSH1 0x40 MLOAD DUP1 PUSH1 0x60 ADD PUSH1 0x40 MSTORE DUP1 DUP8 DUP2 MSTORE PUSH1 0x20 ADD DUP7 DUP2 MSTORE PUSH1 0x20 ADD DUP6 DUP2 MSTORE POP PUSH1 0x40 MLOAD DUP1 DUP3 PUSH1 0x3 PUSH1 0x20 MUL DUP1 DUP4 DUP4 PUSH1 0x0 JUMPDEST DUP4 DUP2 LT ISZERO PUSH2 0x8C1 JUMPI DUP2 DUP2 ADD MLOAD DUP4 DUP3 ADD MSTORE PUSH1 0x20 ADD PUSH2 0x8A9 JUMP JUMPDEST POP POP POP POP SWAP1 POP ADD SWAP2 POP POP PUSH1 0x40 MLOAD DUP1 SWAP2 SUB SWAP1 LOG3 JUMPDEST POP POP PUSH1 0x0 NOT SWAP1 SWAP4 ADD SWAP3 POP PUSH1 0x3 ADD PUSH2 0x6D8 JUMP JUMPDEST DUP2 ISZERO PUSH2 0x91B JUMPI PUSH1 0x40 MLOAD CALLER SWAP1 DUP4 ISZERO PUSH2 0x8FC MUL SWAP1 DUP5 SWAP1 PUSH1 0x0 DUP2 DUP2 DUP2 DUP6 DUP9 DUP9 CALL SWAP4 POP POP POP POP ISZERO DUP1 ISZERO PUSH2 0x919 JUMPI RETURNDATASIZE PUSH1 0x0 DUP1 RETURNDATACOPY RETURNDATASIZE PUSH1 0x0 REVERT JUMPDEST POP JUMPDEST PUSH1 0x1 PUSH1 0x1 PUSH1 0xA0 SHL SUB DUP5 AND PUSH1 0x0 SWAP1 DUP2 MSTORE PUSH1 0x5 PUSH1 0x20 MSTORE PUSH1 0x40 SWAP1 KECCAK256 SLOAD PUSH1 0xFF AND ISZERO PUSH2 0x976 JUMPI PUSH1 0x40 MLOAD PUSH1 0x1 PUSH1 0x1 PUSH1 0xA0 SHL SUB DUP6 AND SWAP1 PUSH1 0xA CALLVALUE DIV DUP1 ISZERO PUSH2 0x8FC MUL SWAP2 PUSH1 0x0 DUP2 DUP2 DUP2 DUP6 DUP9 DUP9 CALL SWAP4 POP POP POP POP ISZERO DUP1 ISZERO PUSH2 0x974 JUMPI RETURNDATASIZE PUSH1 0x0 DUP1 RETURNDATACOPY RETURNDATASIZE PUSH1 0x0 REVERT JUMPDEST POP JUMPDEST POP POP POP POP JUMP JUMPDEST DUP1 MLOAD PUSH1 0x0 SWAP1 DUP3 SWAP1 PUSH1 0x1 DUP2 LT DUP1 PUSH2 0x992 JUMPI POP PUSH1 0x20 DUP2 GT JUMPDEST ISZERO PUSH2 0x9A2 JUMPI PUSH1 0x0 SWAP3 POP POP POP PUSH2 0x58C JUMP JUMPDEST DUP2 PUSH1 0x0 DUP2 MLOAD DUP2 LT PUSH2 0x9AF JUMPI INVALID JUMPDEST PUSH1 0x20 SWAP2 ADD ADD MLOAD PUSH1 0x1 PUSH1 0x1 PUSH1 0xF8 SHL SUB NOT AND PUSH1 0x1 PUSH1 0xFD SHL EQ DUP1 PUSH2 0x9F1 JUMPI POP DUP2 PUSH1 0x1 DUP3 SUB DUP2 MLOAD DUP2 LT PUSH2 0x9DA JUMPI INVALID JUMPDEST PUSH1 0x20 SWAP2 ADD ADD MLOAD PUSH1 0x1 PUSH1 0x1 PUSH1 0xF8 SHL SUB NOT AND PUSH1 0x1 PUSH1 0xFD SHL EQ JUMPDEST ISZERO PUSH2 0xA01 JUMPI PUSH1 0x0 SWAP3 POP POP POP PUSH2 0x58C JUMP JUMPDEST DUP2 PUSH1 0x0 DUP2 MLOAD DUP2 LT PUSH2 0xA0E JUMPI INVALID JUMPDEST PUSH1 0x20 SWAP2 ADD ADD MLOAD PUSH1 0x1 PUSH1 0x1 PUSH1 0xF8 SHL SUB NOT AND PUSH1 0x3 PUSH1 0xFC SHL EQ ISZERO PUSH2 0xA34 JUMPI PUSH1 0x0 SWAP3 POP POP POP PUSH2 0x58C JUMP JUMPDEST PUSH1 0x0 JUMPDEST DUP3 MLOAD DUP2 LT ISZERO PUSH2 0xB55 JUMPI PUSH1 0x0 DUP4 DUP3 DUP2 MLOAD DUP2 LT PUSH2 0xA4E JUMPI INVALID JUMPDEST ADD PUSH1 0x20 ADD MLOAD PUSH1 0x1 PUSH1 0x1 PUSH1 0xF8 SHL SUB NOT AND SWAP1 POP PUSH1 0x3 PUSH1 0xFC SHL DUP2 LT DUP1 ISZERO SWAP1 PUSH2 0xA81 JUMPI POP PUSH1 0x39 PUSH1 0xF8 SHL PUSH1 0x1 PUSH1 0x1 PUSH1 0xF8 SHL SUB NOT DUP3 AND GT ISZERO JUMPDEST ISZERO DUP1 ISZERO PUSH2 0xAB7 JUMPI POP PUSH1 0x61 PUSH1 0xF8 SHL PUSH1 0x1 PUSH1 0x1 PUSH1 0xF8 SHL SUB NOT DUP3 AND LT DUP1 ISZERO SWAP1 PUSH2 0xAB5 JUMPI POP PUSH1 0x3D PUSH1 0xF9 SHL PUSH1 0x1 PUSH1 0x1 PUSH1 0xF8 SHL SUB NOT DUP3 AND GT ISZERO JUMPDEST ISZERO JUMPDEST DUP1 ISZERO PUSH2 0xAEC JUMPI POP PUSH1 0x41 PUSH1 0xF8 SHL PUSH1 0x1 PUSH1 0x1 PUSH1 0xF8 SHL SUB NOT DUP3 AND LT DUP1 ISZERO SWAP1 PUSH2 0xAEA JUMPI POP PUSH1 0x2D PUSH1 0xF9 SHL PUSH1 0x1 PUSH1 0x1 PUSH1 0xF8 SHL SUB NOT DUP3 AND GT ISZERO JUMPDEST ISZERO JUMPDEST DUP1 ISZERO PUSH2 0xB06 JUMPI POP PUSH1 0x1 PUSH1 0xFD SHL PUSH1 0x1 PUSH1 0x1 PUSH1 0xF8 SHL SUB NOT DUP3 AND EQ ISZERO JUMPDEST DUP1 ISZERO PUSH2 0xB20 JUMPI POP PUSH1 0x5F PUSH1 0xF8 SHL PUSH1 0x1 PUSH1 0x1 PUSH1 0xF8 SHL SUB NOT DUP3 AND EQ ISZERO JUMPDEST DUP1 ISZERO PUSH2 0xB3A JUMPI POP PUSH1 0x17 PUSH1 0xF9 SHL PUSH1 0x1 PUSH1 0x1 PUSH1 0xF8 SHL SUB NOT DUP3 AND EQ ISZERO JUMPDEST ISZERO PUSH2 0xB4C JUMPI PUSH1 0x0 SWAP5 POP POP POP POP POP PUSH2 0x58C JUMP JUMPDEST POP PUSH1 0x1 ADD PUSH2 0xA37 JUMP JUMPDEST POP PUSH1 0x1 SWAP5 SWAP4 POP POP POP POP JUMP JUMPDEST PUSH1 0x40 DUP1 MLOAD TIMESTAMP PUSH1 0x20 DUP1 DUP4 ADD SWAP2 SWAP1 SWAP2 MSTORE COINBASE PUSH1 0x60 SHL DUP3 DUP5 ADD MSTORE DIFFICULTY PUSH1 0x54 DUP4 ADD MSTORE PUSH1 0x0 NOT NUMBER ADD BLOCKHASH PUSH1 0x74 DUP4 ADD DUP2 SWAP1 MSTORE ADDRESS BALANCE PUSH1 0x94 DUP5 ADD DUP2 SWAP1 MSTORE PUSH1 0xB4 DUP1 DUP6 ADD DUP8 SWAP1 MSTORE DUP6 MLOAD DUP1 DUP7 SUB SWAP1 SWAP2 ADD DUP2 MSTORE PUSH1 0xD4 SWAP1 SWAP5 ADD SWAP1 SWAP5 MSTORE DUP3 MLOAD SWAP3 SWAP1 SWAP2 ADD SWAP2 SWAP1 SWAP2 KECCAK256 PUSH1 0x0 SWAP3 SWAP1 DUP4 SWAP1 DUP7 SWAP1 DUP2 PUSH2 0xBC5 JUMPI INVALID JUMPDEST MOD SWAP7 SWAP6 POP POP POP POP POP POP JUMP INVALID LOG2 PUSH6 0x627A7A723058 KECCAK256 0xac DUP4 0xe8 DUP15 SDIV 0x21 RETURNDATACOPY PUSH14 0xBB591883B76D11DB56C6D93B4C6E 0x2f 0xc9 0xc1 DUP1 SWAP10 DUP5 0xf7 0xaf 0xd1 0xb2 PUSH5 0x736F6C6343 STOP SDIV EXP STOP ORIGIN "
		},
		"gasEstimates": {
			"creation": {
				"codeDepositCost": "615400",
				"executionCost": "infinite",
				"totalCost": "infinite"
			},
			"external": {
				"": "164",
				"affiliateCost()": "421",
				"costToPlay()": "421",
				"costToSetPlayerName()": "443",
				"createAffiliate()": "20477",
				"getPlayerName(address)": "573",
				"owner()": "504",
				"ownershipCost()": "422",
				"setAffiliateCost(uint256)": "20476",
				"setCostToPlay(uint256)": "20520",
				"setPlayerName(string)": "infinite",
				"spin(address)": "infinite",
				"takeOwnership()": "infinite",
				"transferOwnership(address)": "20774",
				"withdrawAsOwner(uint256)": "infinite"
			}
		},
		"methodIdentifiers": {
			"affiliateCost()": "81f08783",
			"costToPlay()": "c2265f96",
			"costToSetPlayerName()": "c94bf0db",
			"createAffiliate()": "ed591eda",
			"getPlayerName(address)": "e18d38ce",
			"owner()": "8da5cb5b",
			"ownershipCost()": "32c85d9c",
			"setAffiliateCost(uint256)": "831c129c",
			"setCostToPlay(uint256)": "b2dacd1c",
			"setPlayerName(string)": "d8177369",
			"spin(address)": "fcbfc36c",
			"takeOwnership()": "60536172",
			"transferOwnership(address)": "f2fde38b",
			"withdrawAsOwner(uint256)": "61c1f797"
		}
	},
	"abi": [
		{
			"constant": true,
			"inputs": [],
			"name": "ownershipCost",
			"outputs": [
				{
					"name": "",
					"type": "uint256"
				}
			],
			"payable": false,
			"stateMutability": "view",
			"type": "function"
		},
		{
			"constant": false,
			"inputs": [],
			"name": "takeOwnership",
			"outputs": [],
			"payable": true,
			"stateMutability": "payable",
			"type": "function"
		},
		{
			"constant": false,
			"inputs": [
				{
					"name": "amount",
					"type": "uint256"
				}
			],
			"name": "withdrawAsOwner",
			"outputs": [],
			"payable": false,
			"stateMutability": "nonpayable",
			"type": "function"
		},
		{
			"constant": true,
			"inputs": [],
			"name": "affiliateCost",
			"outputs": [
				{
					"name": "",
					"type": "uint256"
				}
			],
			"payable": false,
			"stateMutability": "view",
			"type": "function"
		},
		{
			"constant": false,
			"inputs": [
				{
					"name": "newAffiliateCost",
					"type": "uint256"
				}
			],
			"name": "setAffiliateCost",
			"outputs": [],
			"payable": false,
			"stateMutability": "nonpayable",
			"type": "function"
		},
		{
			"constant": true,
			"inputs": [],
			"name": "owner",
			"outputs": [
				{
					"name": "",
					"type": "address"
				}
			],
			"payable": false,
			"stateMutability": "view",
			"type": "function"
		},
		{
			"constant": false,
			"inputs": [
				{
					"name": "newCostToPlay",
					"type": "uint256"
				}
			],
			"name": "setCostToPlay",
			"outputs": [],
			"payable": false,
			"stateMutability": "nonpayable",
			"type": "function"
		},
		{
			"constant": true,
			"inputs": [],
			"name": "costToPlay",
			"outputs": [
				{
					"name": "",
					"type": "uint256"
				}
			],
			"payable": false,
			"stateMutability": "view",
			"type": "function"
		},
		{
			"constant": true,
			"inputs": [],
			"name": "costToSetPlayerName",
			"outputs": [
				{
					"name": "",
					"type": "uint256"
				}
			],
			"payable": false,
			"stateMutability": "view",
			"type": "function"
		},
		{
			"constant": false,
			"inputs": [
				{
					"name": "playerName",
					"type": "string"
				}
			],
			"name": "setPlayerName",
			"outputs": [],
			"payable": true,
			"stateMutability": "payable",
			"type": "function"
		},
		{
			"constant": true,
			"inputs": [
				{
					"name": "playerAddress",
					"type": "address"
				}
			],
			"name": "getPlayerName",
			"outputs": [
				{
					"name": "playerName",
					"type": "bytes32"
				}
			],
			"payable": false,
			"stateMutability": "view",
			"type": "function"
		},
		{
			"constant": false,
			"inputs": [],
			"name": "createAffiliate",
			"outputs": [],
			"payable": true,
			"stateMutability": "payable",
			"type": "function"
		},
		{
			"constant": false,
			"inputs": [
				{
					"name": "newOwner",
					"type": "address"
				}
			],
			"name": "transferOwnership",
			"outputs": [],
			"payable": false,
			"stateMutability": "nonpayable",
			"type": "function"
		},
		{
			"constant": false,
			"inputs": [
				{
					"name": "affiliateAddress",
					"type": "address"
				}
			],
			"name": "spin",
			"outputs": [],
			"payable": true,
			"stateMutability": "payable",
			"type": "function"
		},
		{
			"inputs": [
				{
					"name": "_costToPlay",
					"type": "uint256"
				},
				{
					"name": "_costToSetPlayerName",
					"type": "uint256"
				},
				{
					"name": "_affiliateCost",
					"type": "uint256"
				},
				{
					"name": "_ownershipCost",
					"type": "uint256"
				}
			],
			"payable": false,
			"stateMutability": "nonpayable",
			"type": "constructor"
		},
		{
			"payable": true,
			"stateMutability": "payable",
			"type": "fallback"
		},
		{
			"anonymous": false,
			"inputs": [
				{
					"indexed": true,
					"name": "_player",
					"type": "address"
				},
				{
					"indexed": true,
					"name": "_status",
					"type": "bytes32"
				},
				{
					"indexed": false,
					"name": "_result",
					"type": "uint256[3]"
				}
			],
			"name": "OnSpin",
			"type": "event"
		},
		{
			"anonymous": false,
			"inputs": [
				{
					"indexed": true,
					"name": "_playerAddress",
					"type": "address"
				},
				{
					"indexed": false,
					"name": "_playerName",
					"type": "bytes32"
				}
			],
			"name": "OnPlayerName",
			"type": "event"
		}
	]
}